{
  "contractName": "Election",
  "abi": [
    {
      "inputs": [],
      "stateMutability": "nonpayable",
      "type": "constructor"
    },
    {
      "inputs": [
        {
          "internalType": "uint256",
          "name": "",
          "type": "uint256"
        }
      ],
      "name": "candidates",
      "outputs": [
        {
          "internalType": "uint256",
          "name": "index",
          "type": "uint256"
        },
        {
          "internalType": "string",
          "name": "name",
          "type": "string"
        },
        {
          "internalType": "uint256",
          "name": "votecount",
          "type": "uint256"
        }
      ],
      "stateMutability": "view",
      "type": "function",
      "constant": true
    },
    {
      "inputs": [],
      "name": "candidatesCount",
      "outputs": [
        {
          "internalType": "uint256",
          "name": "",
          "type": "uint256"
        }
      ],
      "stateMutability": "view",
      "type": "function",
      "constant": true
    },
    {
      "inputs": [
        {
          "internalType": "address",
          "name": "",
          "type": "address"
        }
      ],
      "name": "voters",
      "outputs": [
        {
          "internalType": "string",
          "name": "name",
          "type": "string"
        },
        {
          "internalType": "uint256",
          "name": "index",
          "type": "uint256"
        },
        {
          "internalType": "bool",
          "name": "voted",
          "type": "bool"
        }
      ],
      "stateMutability": "view",
      "type": "function",
      "constant": true
    },
    {
      "inputs": [
        {
          "internalType": "string",
          "name": "_name",
          "type": "string"
        },
        {
          "internalType": "uint256",
          "name": "_index",
          "type": "uint256"
        }
      ],
      "name": "voting",
      "outputs": [
        {
          "internalType": "bool",
          "name": "",
          "type": "bool"
        }
      ],
      "stateMutability": "nonpayable",
      "type": "function"
    },
    {
      "inputs": [],
      "name": "getwinner",
      "outputs": [
        {
          "internalType": "uint256",
          "name": "",
          "type": "uint256"
        }
      ],
      "stateMutability": "view",
      "type": "function",
      "constant": true
    }
  ],
  "bytecode": "0x60806040523480156200001157600080fd5b50620000586040518060400160405280600c81526020017f43616e6e64696461746520310000000000000000000000000000000000000000815250620000a460201b60201c565b6200009e6040518060400160405280600c81526020017f43616e6e64696461746520320000000000000000000000000000000000000000815250620000a460201b60201c565b620004ff565b60026000815480929190620000b9906200015b565b9190505550604051806060016040528060025481526020018281526020016000815250600080600254815260200190815260200160002060008201518160000155602082015181600101908162000111919062000418565b506040820151816002015590505050565b7f4e487b7100000000000000000000000000000000000000000000000000000000600052601160045260246000fd5b6000819050919050565b6000620001688262000151565b91507fffffffffffffffffffffffffffffffffffffffffffffffffffffffffffffffff82036200019d576200019c62000122565b5b600182019050919050565b600081519050919050565b7f4e487b7100000000000000000000000000000000000000000000000000000000600052604160045260246000fd5b7f4e487b7100000000000000000000000000000000000000000000000000000000600052602260045260246000fd5b600060028204905060018216806200022a57607f821691505b60208210810362000240576200023f620001e2565b5b50919050565b60008190508160005260206000209050919050565b60006020601f8301049050919050565b600082821b905092915050565b600060088302620002aa7fffffffffffffffffffffffffffffffffffffffffffffffffffffffffffffffff826200026b565b620002b686836200026b565b95508019841693508086168417925050509392505050565b6000819050919050565b6000620002f9620002f3620002ed8462000151565b620002ce565b62000151565b9050919050565b6000819050919050565b6200031583620002d8565b6200032d620003248262000300565b84845462000278565b825550505050565b600090565b6200034462000335565b620003518184846200030a565b505050565b5b8181101562000379576200036d6000826200033a565b60018101905062000357565b5050565b601f821115620003c857620003928162000246565b6200039d846200025b565b81016020851015620003ad578190505b620003c5620003bc856200025b565b83018262000356565b50505b505050565b600082821c905092915050565b6000620003ed60001984600802620003cd565b1980831691505092915050565b6000620004088383620003da565b9150826002028217905092915050565b6200042382620001a8565b67ffffffffffffffff8111156200043f576200043e620001b3565b5b6200044b825462000211565b620004588282856200037d565b600060209050601f8311600181146200049057600084156200047b578287015190505b620004878582620003fa565b865550620004f7565b601f198416620004a08662000246565b60005b82811015620004ca57848901518255600182019150602085019450602081019050620004a3565b86831015620004ea5784890151620004e6601f891682620003da565b8355505b6001600288020188555050505b505050505050565b610c96806200050f6000396000f3fe608060405234801561001057600080fd5b50600436106100575760003560e01c80632d35a8a21461005c5780633477ee2e1461007a578063a3ec138d146100ac578063e7bb7cbe146100de578063f11debf9146100fc575b600080fd5b61006461012c565b60405161007191906104b9565b60405180910390f35b610094600480360381019061008f9190610514565b610132565b6040516100a3939291906105d1565b60405180910390f35b6100c660048036038101906100c1919061066d565b6101e4565b6040516100d5939291906106b5565b60405180910390f35b6100e66102a3565b6040516100f391906104b9565b60405180910390f35b61011660048036038101906101119190610828565b610334565b6040516101239190610884565b60405180910390f35b60025481565b600060205280600052604060002060009150905080600001549080600101805461015b906108ce565b80601f0160208091040260200160405190810160405280929190818152602001828054610187906108ce565b80156101d45780601f106101a9576101008083540402835291602001916101d4565b820191906000526020600020905b8154815290600101906020018083116101b757829003601f168201915b5050505050908060020154905083565b6001602052806000526040600020600091509050806000018054610207906108ce565b80601f0160208091040260200160405190810160405280929190818152602001828054610233906108ce565b80156102805780601f1061025557610100808354040283529160200191610280565b820191906000526020600020905b81548152906001019060200180831161026357829003601f168201915b5050505050908060010154908060020160009054906101000a900460ff16905083565b600080600080600181526020019081526020016000206002015490506000806000600281526020019081526020016000206002015490508082111561030257600080600181526020019081526020016000206000015492505050610331565b8181111561032a57600080600281526020019081526020016000206000015492505050610331565b6000925050505b90565b6000801515600160003373ffffffffffffffffffffffffffffffffffffffff1673ffffffffffffffffffffffffffffffffffffffff16815260200190815260200160002060020160009054906101000a900460ff161515146103cb576040517f08c379a00000000000000000000000000000000000000000000000000000000081526004016103c29061094b565b60405180910390fd5b60008083815260200190815260200160002060020160008154809291906103f19061099a565b9190505550604051806060016040528084815260200183815260200160011515815250600160003373ffffffffffffffffffffffffffffffffffffffff1673ffffffffffffffffffffffffffffffffffffffff16815260200190815260200160002060008201518160000190816104689190610b8e565b506020820151816001015560408201518160020160006101000a81548160ff0219169083151502179055509050506001905092915050565b6000819050919050565b6104b3816104a0565b82525050565b60006020820190506104ce60008301846104aa565b92915050565b6000604051905090565b600080fd5b600080fd5b6104f1816104a0565b81146104fc57600080fd5b50565b60008135905061050e816104e8565b92915050565b60006020828403121561052a576105296104de565b5b6000610538848285016104ff565b91505092915050565b600081519050919050565b600082825260208201905092915050565b60005b8381101561057b578082015181840152602081019050610560565b60008484015250505050565b6000601f19601f8301169050919050565b60006105a382610541565b6105ad818561054c565b93506105bd81856020860161055d565b6105c681610587565b840191505092915050565b60006060820190506105e660008301866104aa565b81810360208301526105f88185610598565b905061060760408301846104aa565b949350505050565b600073ffffffffffffffffffffffffffffffffffffffff82169050919050565b600061063a8261060f565b9050919050565b61064a8161062f565b811461065557600080fd5b50565b60008135905061066781610641565b92915050565b600060208284031215610683576106826104de565b5b600061069184828501610658565b91505092915050565b60008115159050919050565b6106af8161069a565b82525050565b600060608201905081810360008301526106cf8186610598565b90506106de60208301856104aa565b6106eb60408301846106a6565b949350505050565b600080fd5b600080fd5b7f4e487b7100000000000000000000000000000000000000000000000000000000600052604160045260246000fd5b61073582610587565b810181811067ffffffffffffffff82111715610754576107536106fd565b5b80604052505050565b60006107676104d4565b9050610773828261072c565b919050565b600067ffffffffffffffff821115610793576107926106fd565b5b61079c82610587565b9050602081019050919050565b82818337600083830152505050565b60006107cb6107c684610778565b61075d565b9050828152602081018484840111156107e7576107e66106f8565b5b6107f28482856107a9565b509392505050565b600082601f83011261080f5761080e6106f3565b5b813561081f8482602086016107b8565b91505092915050565b6000806040838503121561083f5761083e6104de565b5b600083013567ffffffffffffffff81111561085d5761085c6104e3565b5b610869858286016107fa565b925050602061087a858286016104ff565b9150509250929050565b600060208201905061089960008301846106a6565b92915050565b7f4e487b7100000000000000000000000000000000000000000000000000000000600052602260045260246000fd5b600060028204905060018216806108e657607f821691505b6020821081036108f9576108f861089f565b5b50919050565b7f416c726561647920766f74656400000000000000000000000000000000000000600082015250565b6000610935600d8361054c565b9150610940826108ff565b602082019050919050565b6000602082019050818103600083015261096481610928565b9050919050565b7f4e487b7100000000000000000000000000000000000000000000000000000000600052601160045260246000fd5b60006109a5826104a0565b91507fffffffffffffffffffffffffffffffffffffffffffffffffffffffffffffffff82036109d7576109d661096b565b5b600182019050919050565b60008190508160005260206000209050919050565b60006020601f8301049050919050565b600082821b905092915050565b600060088302610a447fffffffffffffffffffffffffffffffffffffffffffffffffffffffffffffffff82610a07565b610a4e8683610a07565b95508019841693508086168417925050509392505050565b6000819050919050565b6000610a8b610a86610a81846104a0565b610a66565b6104a0565b9050919050565b6000819050919050565b610aa583610a70565b610ab9610ab182610a92565b848454610a14565b825550505050565b600090565b610ace610ac1565b610ad9818484610a9c565b505050565b5b81811015610afd57610af2600082610ac6565b600181019050610adf565b5050565b601f821115610b4257610b13816109e2565b610b1c846109f7565b81016020851015610b2b578190505b610b3f610b37856109f7565b830182610ade565b50505b505050565b600082821c905092915050565b6000610b6560001984600802610b47565b1980831691505092915050565b6000610b7e8383610b54565b9150826002028217905092915050565b610b9782610541565b67ffffffffffffffff811115610bb057610baf6106fd565b5b610bba82546108ce565b610bc5828285610b01565b600060209050601f831160018114610bf85760008415610be6578287015190505b610bf08582610b72565b865550610c58565b601f198416610c06866109e2565b60005b82811015610c2e57848901518255600182019150602085019450602081019050610c09565b86831015610c4b5784890151610c47601f891682610b54565b8355505b6001600288020188555050505b50505050505056fea2646970667358221220bdd98f149450fea23a30039ceb94cbe2ab5579b8c307b7f29574c979061764b864736f6c63430008110033",
  "immutableReferences": {},
  "source": "pragma solidity ^0.8.0;\r\n\r\ncontract Election {\r\n    struct candidate {\r\n        uint256 index;\r\n        string name;\r\n        uint256 votecount;\r\n    }\r\n\r\n    struct voter {\r\n        string name;\r\n        uint256 index;\r\n        bool voted;\r\n    }\r\n\r\n    mapping(uint256 => candidate) public candidates;\r\n    mapping(address => voter) public voters;\r\n    uint256 public candidatesCount;\r\n\r\n    constructor() {\r\n        addCandidate(\"Canndidate 1\");\r\n        addCandidate(\"Canndidate 2\");\r\n    }\r\n\r\n    function addCandidate(string memory _name) private {\r\n        candidatesCount++;\r\n        candidates[candidatesCount] = candidate({index:candidatesCount, name:_name, votecount:0});\r\n    }\r\n\r\n    function voting(string memory _name, uint256 _index) public returns(bool) {\r\n        require(voters[msg.sender].voted == false, \"Already voted\");\r\n        candidates[_index].votecount++;\r\n        voters[msg.sender] = voter(_name, _index, true);\r\n        return true;\r\n    }\r\n\r\n    function getwinner() public view returns (uint256) {\r\n        uint256 x = candidates[1].votecount;\r\n        uint256 y = candidates[2].votecount;\r\n\r\n        if (x > y) {\r\n            return candidates[1].index;\r\n        } else if (y > x) {\r\n            return candidates[2].index;\r\n        } else {\r\n            return 0;\r\n        }\r\n    }\r\n}\r\n",
  "sourcePath": "C:\\Users\\Vignesh\\Desktop\\voting_dapp\\src\\contracts\\Election.sol",
  "compiler": {
    "name": "solc",
    "version": "0.8.17+commit.8df45f5f.Emscripten.clang"
  },
  "schemaVersion": "3.4.11",
  "updatedAt": "2023-01-14T12:24:49.285Z",
  "networkType": "ethereum",
  "devdoc": {
    "kind": "dev",
    "methods": {},
    "version": 1
  },
  "userdoc": {
    "kind": "user",
    "methods": {},
    "version": 1
  }
}