{
  "contractName": "Election",
  "abi": [
    {
      "inputs": [],
      "stateMutability": "nonpayable",
      "type": "constructor"
    },
    {
      "inputs": [
        {
          "internalType": "uint256",
          "name": "",
          "type": "uint256"
        }
      ],
      "name": "candidates",
      "outputs": [
        {
          "internalType": "uint256",
          "name": "index",
          "type": "uint256"
        },
        {
          "internalType": "string",
          "name": "name",
          "type": "string"
        },
        {
          "internalType": "uint256",
          "name": "votecount",
          "type": "uint256"
        }
      ],
      "stateMutability": "view",
      "type": "function",
      "constant": true
    },
    {
      "inputs": [],
      "name": "candidatesCount",
      "outputs": [
        {
          "internalType": "uint256",
          "name": "",
          "type": "uint256"
        }
      ],
      "stateMutability": "view",
      "type": "function",
      "constant": true
    },
    {
      "inputs": [
        {
          "internalType": "address",
          "name": "",
          "type": "address"
        }
      ],
      "name": "voters",
      "outputs": [
        {
          "internalType": "string",
          "name": "name",
          "type": "string"
        },
        {
          "internalType": "uint256",
          "name": "index",
          "type": "uint256"
        },
        {
          "internalType": "bool",
          "name": "voted",
          "type": "bool"
        }
      ],
      "stateMutability": "view",
      "type": "function",
      "constant": true
    },
    {
      "inputs": [
        {
          "internalType": "string",
          "name": "_name",
          "type": "string"
        },
        {
          "internalType": "uint256",
          "name": "_index",
          "type": "uint256"
        }
      ],
      "name": "voting",
      "outputs": [],
      "stateMutability": "nonpayable",
      "type": "function"
    },
    {
      "inputs": [],
      "name": "getwinner",
      "outputs": [
        {
          "internalType": "uint256",
          "name": "",
          "type": "uint256"
        }
      ],
      "stateMutability": "view",
      "type": "function",
      "constant": true
    }
  ],
  "bytecode": "0x60806040523480156200001157600080fd5b50620000586040518060400160405280600c81526020017f43616e6e64696461746520310000000000000000000000000000000000000000815250620000a460201b60201c565b6200009e6040518060400160405280600c81526020017f43616e6e64696461746520320000000000000000000000000000000000000000815250620000a460201b60201c565b620004ff565b60026000815480929190620000b9906200015b565b9190505550604051806060016040528060025481526020018281526020016000815250600080600254815260200190815260200160002060008201518160000155602082015181600101908162000111919062000418565b506040820151816002015590505050565b7f4e487b7100000000000000000000000000000000000000000000000000000000600052601160045260246000fd5b6000819050919050565b6000620001688262000151565b91507fffffffffffffffffffffffffffffffffffffffffffffffffffffffffffffffff82036200019d576200019c62000122565b5b600182019050919050565b600081519050919050565b7f4e487b7100000000000000000000000000000000000000000000000000000000600052604160045260246000fd5b7f4e487b7100000000000000000000000000000000000000000000000000000000600052602260045260246000fd5b600060028204905060018216806200022a57607f821691505b60208210810362000240576200023f620001e2565b5b50919050565b60008190508160005260206000209050919050565b60006020601f8301049050919050565b600082821b905092915050565b600060088302620002aa7fffffffffffffffffffffffffffffffffffffffffffffffffffffffffffffffff826200026b565b620002b686836200026b565b95508019841693508086168417925050509392505050565b6000819050919050565b6000620002f9620002f3620002ed8462000151565b620002ce565b62000151565b9050919050565b6000819050919050565b6200031583620002d8565b6200032d620003248262000300565b84845462000278565b825550505050565b600090565b6200034462000335565b620003518184846200030a565b505050565b5b8181101562000379576200036d6000826200033a565b60018101905062000357565b5050565b601f821115620003c857620003928162000246565b6200039d846200025b565b81016020851015620003ad578190505b620003c5620003bc856200025b565b83018262000356565b50505b505050565b600082821c905092915050565b6000620003ed60001984600802620003cd565b1980831691505092915050565b6000620004088383620003da565b9150826002028217905092915050565b6200042382620001a8565b67ffffffffffffffff8111156200043f576200043e620001b3565b5b6200044b825462000211565b620004588282856200037d565b600060209050601f8311600181146200049057600084156200047b578287015190505b620004878582620003fa565b865550620004f7565b601f198416620004a08662000246565b60005b82811015620004ca57848901518255600182019150602085019450602081019050620004a3565b86831015620004ea5784890151620004e6601f891682620003da565b8355505b6001600288020188555050505b505050505050565b610c60806200050f6000396000f3fe608060405234801561001057600080fd5b50600436106100575760003560e01c80632d35a8a21461005c5780633477ee2e1461007a578063a3ec138d146100ac578063e7bb7cbe146100de578063f11debf9146100fc575b600080fd5b610064610118565b604051610071919061049e565b60405180910390f35b610094600480360381019061008f91906104f9565b61011e565b6040516100a3939291906105b6565b60405180910390f35b6100c660048036038101906100c19190610652565b6101d0565b6040516100d59392919061069a565b60405180910390f35b6100e661028f565b6040516100f3919061049e565b60405180910390f35b6101166004803603810190610111919061080d565b610320565b005b60025481565b600060205280600052604060002060009150905080600001549080600101805461014790610898565b80601f016020809104026020016040519081016040528092919081815260200182805461017390610898565b80156101c05780601f10610195576101008083540402835291602001916101c0565b820191906000526020600020905b8154815290600101906020018083116101a357829003601f168201915b5050505050908060020154905083565b60016020528060005260406000206000915090508060000180546101f390610898565b80601f016020809104026020016040519081016040528092919081815260200182805461021f90610898565b801561026c5780601f106102415761010080835404028352916020019161026c565b820191906000526020600020905b81548152906001019060200180831161024f57829003601f168201915b5050505050908060010154908060020160009054906101000a900460ff16905083565b60008060008060018152602001908152602001600020600201549050600080600060028152602001908152602001600020600201549050808211156102ee5760008060018152602001908152602001600020600001549250505061031d565b818111156103165760008060028152602001908152602001600020600001549250505061031d565b6000925050505b90565b60001515600160003373ffffffffffffffffffffffffffffffffffffffff1673ffffffffffffffffffffffffffffffffffffffff16815260200190815260200160002060020160009054906101000a900460ff161515146103b6576040517f08c379a00000000000000000000000000000000000000000000000000000000081526004016103ad90610915565b60405180910390fd5b60008082815260200190815260200160002060020160008154809291906103dc90610964565b9190505550604051806060016040528083815260200182815260200160011515815250600160003373ffffffffffffffffffffffffffffffffffffffff1673ffffffffffffffffffffffffffffffffffffffff16815260200190815260200160002060008201518160000190816104539190610b58565b506020820151816001015560408201518160020160006101000a81548160ff0219169083151502179055509050505050565b6000819050919050565b61049881610485565b82525050565b60006020820190506104b3600083018461048f565b92915050565b6000604051905090565b600080fd5b600080fd5b6104d681610485565b81146104e157600080fd5b50565b6000813590506104f3816104cd565b92915050565b60006020828403121561050f5761050e6104c3565b5b600061051d848285016104e4565b91505092915050565b600081519050919050565b600082825260208201905092915050565b60005b83811015610560578082015181840152602081019050610545565b60008484015250505050565b6000601f19601f8301169050919050565b600061058882610526565b6105928185610531565b93506105a2818560208601610542565b6105ab8161056c565b840191505092915050565b60006060820190506105cb600083018661048f565b81810360208301526105dd818561057d565b90506105ec604083018461048f565b949350505050565b600073ffffffffffffffffffffffffffffffffffffffff82169050919050565b600061061f826105f4565b9050919050565b61062f81610614565b811461063a57600080fd5b50565b60008135905061064c81610626565b92915050565b600060208284031215610668576106676104c3565b5b60006106768482850161063d565b91505092915050565b60008115159050919050565b6106948161067f565b82525050565b600060608201905081810360008301526106b4818661057d565b90506106c3602083018561048f565b6106d0604083018461068b565b949350505050565b600080fd5b600080fd5b7f4e487b7100000000000000000000000000000000000000000000000000000000600052604160045260246000fd5b61071a8261056c565b810181811067ffffffffffffffff82111715610739576107386106e2565b5b80604052505050565b600061074c6104b9565b90506107588282610711565b919050565b600067ffffffffffffffff821115610778576107776106e2565b5b6107818261056c565b9050602081019050919050565b82818337600083830152505050565b60006107b06107ab8461075d565b610742565b9050828152602081018484840111156107cc576107cb6106dd565b5b6107d784828561078e565b509392505050565b600082601f8301126107f4576107f36106d8565b5b813561080484826020860161079d565b91505092915050565b60008060408385031215610824576108236104c3565b5b600083013567ffffffffffffffff811115610842576108416104c8565b5b61084e858286016107df565b925050602061085f858286016104e4565b9150509250929050565b7f4e487b7100000000000000000000000000000000000000000000000000000000600052602260045260246000fd5b600060028204905060018216806108b057607f821691505b6020821081036108c3576108c2610869565b5b50919050565b7f616c726561647920766f74656400000000000000000000000000000000000000600082015250565b60006108ff600d83610531565b915061090a826108c9565b602082019050919050565b6000602082019050818103600083015261092e816108f2565b9050919050565b7f4e487b7100000000000000000000000000000000000000000000000000000000600052601160045260246000fd5b600061096f82610485565b91507fffffffffffffffffffffffffffffffffffffffffffffffffffffffffffffffff82036109a1576109a0610935565b5b600182019050919050565b60008190508160005260206000209050919050565b60006020601f8301049050919050565b600082821b905092915050565b600060088302610a0e7fffffffffffffffffffffffffffffffffffffffffffffffffffffffffffffffff826109d1565b610a1886836109d1565b95508019841693508086168417925050509392505050565b6000819050919050565b6000610a55610a50610a4b84610485565b610a30565b610485565b9050919050565b6000819050919050565b610a6f83610a3a565b610a83610a7b82610a5c565b8484546109de565b825550505050565b600090565b610a98610a8b565b610aa3818484610a66565b505050565b5b81811015610ac757610abc600082610a90565b600181019050610aa9565b5050565b601f821115610b0c57610add816109ac565b610ae6846109c1565b81016020851015610af5578190505b610b09610b01856109c1565b830182610aa8565b50505b505050565b600082821c905092915050565b6000610b2f60001984600802610b11565b1980831691505092915050565b6000610b488383610b1e565b9150826002028217905092915050565b610b6182610526565b67ffffffffffffffff811115610b7a57610b796106e2565b5b610b848254610898565b610b8f828285610acb565b600060209050601f831160018114610bc25760008415610bb0578287015190505b610bba8582610b3c565b865550610c22565b601f198416610bd0866109ac565b60005b82811015610bf857848901518255600182019150602085019450602081019050610bd3565b86831015610c155784890151610c11601f891682610b1e565b8355505b6001600288020188555050505b50505050505056fea2646970667358221220d2ad7e120a8e1c70acc60bfd193fa2d596757d9831bed97104ecd20e1f483c1464736f6c63430008110033",
  "immutableReferences": {},
  "source": "pragma solidity ^0.8.0;\r\n\r\ncontract Election {\r\n    struct candidate {\r\n        uint256 index;\r\n        string name;\r\n        uint256 votecount;\r\n    }\r\n\r\n    struct voter {\r\n        string name;\r\n        uint256 index;\r\n        bool voted;\r\n    }\r\n\r\n    mapping(uint256 => candidate) public candidates;\r\n    mapping(address => voter) public voters;\r\n    uint256 public candidatesCount;\r\n\r\n    constructor() {\r\n        addCandidate(\"Canndidate 1\");\r\n        addCandidate(\"Canndidate 2\");\r\n    }\r\n\r\n    function addCandidate(string memory _name) private {\r\n        candidatesCount++;\r\n        candidates[candidatesCount] = candidate(candidatesCount, _name, 0);\r\n    }\r\n\r\n    function voting(string memory _name, uint256 _index) public {\r\n        require(voters[msg.sender].voted == false, \"already voted\");\r\n        candidates[_index].votecount++;\r\n        voters[msg.sender] = voter(_name, _index, true);\r\n    }\r\n\r\n    function getwinner() public view returns (uint256) {\r\n        uint256 x = candidates[1].votecount;\r\n        uint256 y = candidates[2].votecount;\r\n\r\n        if (x > y) {\r\n            return candidates[1].index;\r\n        } else if (y > x) {\r\n            return candidates[2].index;\r\n        } else {\r\n            return 0;\r\n        }\r\n    }\r\n}\r\n",
  "sourcePath": "C:\\Users\\Vignesh\\Desktop\\voting_dapp\\src\\contracts\\Election.sol",
  "compiler": {
    "name": "solc",
    "version": "0.8.17+commit.8df45f5f.Emscripten.clang"
  },
  "schemaVersion": "3.4.11",
  "updatedAt": "2023-01-14T08:06:28.972Z",
  "networkType": "ethereum",
  "devdoc": {
    "kind": "dev",
    "methods": {},
    "version": 1
  },
  "userdoc": {
    "kind": "user",
    "methods": {},
    "version": 1
  }
}