{
  "contractName": "Election",
  "abi": [
    {
      "inputs": [],
      "stateMutability": "nonpayable",
      "type": "constructor"
    },
    {
      "inputs": [
        {
          "internalType": "uint256",
          "name": "",
          "type": "uint256"
        }
      ],
      "name": "Candidates",
      "outputs": [
        {
          "internalType": "uint256",
          "name": "id",
          "type": "uint256"
        },
        {
          "internalType": "string",
          "name": "name",
          "type": "string"
        },
        {
          "internalType": "uint256",
          "name": "voteCount",
          "type": "uint256"
        }
      ],
      "stateMutability": "view",
      "type": "function",
      "constant": true
    },
    {
      "inputs": [],
      "name": "candidatesCount",
      "outputs": [
        {
          "internalType": "uint256",
          "name": "",
          "type": "uint256"
        }
      ],
      "stateMutability": "view",
      "type": "function",
      "constant": true
    },
    {
      "inputs": [],
      "name": "chairperson",
      "outputs": [
        {
          "internalType": "address",
          "name": "",
          "type": "address"
        }
      ],
      "stateMutability": "view",
      "type": "function",
      "constant": true
    },
    {
      "inputs": [
        {
          "internalType": "address",
          "name": "",
          "type": "address"
        }
      ],
      "name": "voters",
      "outputs": [
        {
          "internalType": "uint256",
          "name": "vote",
          "type": "uint256"
        },
        {
          "internalType": "bool",
          "name": "voted",
          "type": "bool"
        },
        {
          "internalType": "uint256",
          "name": "weight",
          "type": "uint256"
        }
      ],
      "stateMutability": "view",
      "type": "function",
      "constant": true
    },
    {
      "inputs": [
        {
          "internalType": "address",
          "name": "voter",
          "type": "address"
        }
      ],
      "name": "voting",
      "outputs": [],
      "stateMutability": "nonpayable",
      "type": "function"
    }
  ],
  "bytecode": "0x60806040523480156200001157600080fd5b50620000586040518060400160405280600c81526020017f43616e6e646964617465203100000000000000000000000000000000000000008152506200019460201b60201c565b6200009e6040518060400160405280600c81526020017f43616e6e646964617465203200000000000000000000000000000000000000008152506200019460201b60201c565b620000e46040518060400160405280600c81526020017f43616e6e646964617465203300000000000000000000000000000000000000008152506200019460201b60201c565b33600260006101000a81548173ffffffffffffffffffffffffffffffffffffffff021916908373ffffffffffffffffffffffffffffffffffffffff1602179055506001806000600260009054906101000a900473ffffffffffffffffffffffffffffffffffffffff1673ffffffffffffffffffffffffffffffffffffffff1673ffffffffffffffffffffffffffffffffffffffff1681526020019081526020016000206002018190555062000605565b60036000815480929190620001a99062000261565b9190505550600060405180606001604052806003548152602001838152602001600081525090806001815401808255809150506001900390600052602060002090600302016000909190919091506000820151816000015560208201518160010190816200021891906200051e565b5060408201518160020155505050565b7f4e487b7100000000000000000000000000000000000000000000000000000000600052601160045260246000fd5b6000819050919050565b60006200026e8262000257565b91507fffffffffffffffffffffffffffffffffffffffffffffffffffffffffffffffff8203620002a357620002a262000228565b5b600182019050919050565b600081519050919050565b7f4e487b7100000000000000000000000000000000000000000000000000000000600052604160045260246000fd5b7f4e487b7100000000000000000000000000000000000000000000000000000000600052602260045260246000fd5b600060028204905060018216806200033057607f821691505b602082108103620003465762000345620002e8565b5b50919050565b60008190508160005260206000209050919050565b60006020601f8301049050919050565b600082821b905092915050565b600060088302620003b07fffffffffffffffffffffffffffffffffffffffffffffffffffffffffffffffff8262000371565b620003bc868362000371565b95508019841693508086168417925050509392505050565b6000819050919050565b6000620003ff620003f9620003f38462000257565b620003d4565b62000257565b9050919050565b6000819050919050565b6200041b83620003de565b620004336200042a8262000406565b8484546200037e565b825550505050565b600090565b6200044a6200043b565b6200045781848462000410565b505050565b5b818110156200047f576200047360008262000440565b6001810190506200045d565b5050565b601f821115620004ce5762000498816200034c565b620004a38462000361565b81016020851015620004b3578190505b620004cb620004c28562000361565b8301826200045c565b50505b505050565b600082821c905092915050565b6000620004f360001984600802620004d3565b1980831691505092915050565b60006200050e8383620004e0565b9150826002028217905092915050565b6200052982620002ae565b67ffffffffffffffff811115620005455762000544620002b9565b5b62000551825462000317565b6200055e82828562000483565b600060209050601f83116001811462000596576000841562000581578287015190505b6200058d858262000500565b865550620005fd565b601f198416620005a6866200034c565b60005b82811015620005d057848901518255600182019150602085019450602081019050620005a9565b86831015620005f05784890151620005ec601f891682620004e0565b8355505b6001600288020188555050505b505050505050565b61053d80620006156000396000f3fe608060405234801561001057600080fd5b50600436106100575760003560e01c8063290e92121461005c5780632d35a8a21461008e5780632e4176cf146100ac5780638d5c9680146100ca578063a3ec138d146100e6575b600080fd5b6100766004803603810190610071919061027b565b610118565b60405161008593929190610347565b60405180910390f35b6100966101da565b6040516100a39190610385565b60405180910390f35b6100b46101e0565b6040516100c191906103e1565b60405180910390f35b6100e460048036038101906100df9190610428565b610206565b005b61010060048036038101906100fb9190610428565b610209565b60405161010f93929190610470565b60405180910390f35b6000818154811061012857600080fd5b9060005260206000209060030201600091509050806000015490806001018054610151906104d6565b80601f016020809104026020016040519081016040528092919081815260200182805461017d906104d6565b80156101ca5780601f1061019f576101008083540402835291602001916101ca565b820191906000526020600020905b8154815290600101906020018083116101ad57829003601f168201915b5050505050908060020154905083565b60035481565b600260009054906101000a900473ffffffffffffffffffffffffffffffffffffffff1681565b50565b60016020528060005260406000206000915090508060000154908060010160009054906101000a900460ff16908060020154905083565b600080fd5b6000819050919050565b61025881610245565b811461026357600080fd5b50565b6000813590506102758161024f565b92915050565b60006020828403121561029157610290610240565b5b600061029f84828501610266565b91505092915050565b6102b181610245565b82525050565b600081519050919050565b600082825260208201905092915050565b60005b838110156102f15780820151818401526020810190506102d6565b60008484015250505050565b6000601f19601f8301169050919050565b6000610319826102b7565b61032381856102c2565b93506103338185602086016102d3565b61033c816102fd565b840191505092915050565b600060608201905061035c60008301866102a8565b818103602083015261036e818561030e565b905061037d60408301846102a8565b949350505050565b600060208201905061039a60008301846102a8565b92915050565b600073ffffffffffffffffffffffffffffffffffffffff82169050919050565b60006103cb826103a0565b9050919050565b6103db816103c0565b82525050565b60006020820190506103f660008301846103d2565b92915050565b610405816103c0565b811461041057600080fd5b50565b600081359050610422816103fc565b92915050565b60006020828403121561043e5761043d610240565b5b600061044c84828501610413565b91505092915050565b60008115159050919050565b61046a81610455565b82525050565b600060608201905061048560008301866102a8565b6104926020830185610461565b61049f60408301846102a8565b949350505050565b7f4e487b7100000000000000000000000000000000000000000000000000000000600052602260045260246000fd5b600060028204905060018216806104ee57607f821691505b602082108103610501576105006104a7565b5b5091905056fea26469706673582212203481b0801c64cec169e2b5bfdb319012455d10bcc0c3027c0bf951429e91214b64736f6c63430008110033",
  "immutableReferences": {},
  "source": "pragma solidity ^0.8.0;\r\n\r\ncontract Election {\r\n    struct Candidate {\r\n        uint id;\r\n        string name;\r\n        uint voteCount;\r\n    }\r\n\r\n        struct Voter {\r\n            uint vote;\r\n            bool voted;\r\n            uint weight;\r\n        }   \r\n\r\n    Candidate[] public Candidates; \r\n    mapping(address=>Voter) public voters;\r\n\r\n   address public chairperson;\r\n   uint public candidatesCount;\r\n\r\n    constructor() {\r\n        addCandidate(\"Canndidate 1\");\r\n        addCandidate(\"Canndidate 2\");\r\n        addCandidate(\"Canndidate 3\");\r\n\r\n        chairperson = msg.sender;\r\n        voters[chairperson].weight = 1;\r\n    }\r\n\r\n    function addCandidate(string memory _name) private {\r\n        candidatesCount++;\r\n        Candidates.push(Candidate({id: candidatesCount, name:_name, voteCount:0}));\r\n    }\r\n\r\n    function voting(address voter) public {\r\n\r\n    }\r\n\r\n\r\n}\r\n",
  "sourcePath": "C:\\Users\\Vignesh\\Desktop\\voting_dapp\\src\\contracts\\Election.sol",
  "compiler": {
    "name": "solc",
    "version": "0.8.17+commit.8df45f5f.Emscripten.clang"
  },
  "schemaVersion": "3.4.11",
  "updatedAt": "2023-01-14T07:11:40.175Z",
  "networkType": "ethereum",
  "devdoc": {
    "kind": "dev",
    "methods": {},
    "version": 1
  },
  "userdoc": {
    "kind": "user",
    "methods": {},
    "version": 1
  }
}